{
  "_format": "hh-sol-artifact-1",
  "contractName": "ScholarChain",
  "sourceName": "contracts/ScholarChain.sol",
  "abi": [
    {
      "inputs": [
        {
          "internalType": "address",
          "name": "initialAdmin",
          "type": "address"
        }
      ],
      "stateMutability": "nonpayable",
      "type": "constructor"
    },
    {
      "anonymous": false,
      "inputs": [
        {
          "indexed": true,
          "internalType": "address",
          "name": "oldAdmin",
          "type": "address"
        },
        {
          "indexed": true,
          "internalType": "address",
          "name": "newAdmin",
          "type": "address"
        }
      ],
      "name": "AdminChanged",
      "type": "event"
    },
    {
      "anonymous": false,
      "inputs": [
        {
          "indexed": true,
          "internalType": "address",
          "name": "donor",
          "type": "address"
        },
        {
          "indexed": false,
          "internalType": "uint256",
          "name": "amount",
          "type": "uint256"
        },
        {
          "indexed": false,
          "internalType": "uint256",
          "name": "timestamp",
          "type": "uint256"
        }
      ],
      "name": "DonationReceived",
      "type": "event"
    },
    {
      "anonymous": false,
      "inputs": [
        {
          "indexed": true,
          "internalType": "string",
          "name": "studentId",
          "type": "string"
        },
        {
          "indexed": false,
          "internalType": "uint256",
          "name": "amount",
          "type": "uint256"
        },
        {
          "indexed": false,
          "internalType": "uint256",
          "name": "timestamp",
          "type": "uint256"
        },
        {
          "indexed": true,
          "internalType": "address",
          "name": "approvedBy",
          "type": "address"
        }
      ],
      "name": "ScholarshipAllocated",
      "type": "event"
    },
    {
      "inputs": [
        {
          "internalType": "string",
          "name": "studentId",
          "type": "string"
        },
        {
          "internalType": "uint256",
          "name": "amount",
          "type": "uint256"
        },
        {
          "internalType": "address payable",
          "name": "payoutWallet",
          "type": "address"
        }
      ],
      "name": "allocateScholarship",
      "outputs": [],
      "stateMutability": "nonpayable",
      "type": "function"
    },
    {
      "inputs": [
        {
          "internalType": "address",
          "name": "newAdmin",
          "type": "address"
        }
      ],
      "name": "changeAdmin",
      "outputs": [],
      "stateMutability": "nonpayable",
      "type": "function"
    },
    {
      "inputs": [],
      "name": "donate",
      "outputs": [],
      "stateMutability": "payable",
      "type": "function"
    },
    {
      "inputs": [],
      "name": "getAllAllocations",
      "outputs": [
        {
          "components": [
            {
              "internalType": "string",
              "name": "studentId",
              "type": "string"
            },
            {
              "internalType": "uint256",
              "name": "amount",
              "type": "uint256"
            },
            {
              "internalType": "uint256",
              "name": "timestamp",
              "type": "uint256"
            },
            {
              "internalType": "address",
              "name": "approvedBy",
              "type": "address"
            }
          ],
          "internalType": "struct ScholarChain.Allocation[]",
          "name": "",
          "type": "tuple[]"
        }
      ],
      "stateMutability": "view",
      "type": "function"
    },
    {
      "inputs": [],
      "name": "getAllocationsCount",
      "outputs": [
        {
          "internalType": "uint256",
          "name": "",
          "type": "uint256"
        }
      ],
      "stateMutability": "view",
      "type": "function"
    },
    {
      "inputs": [],
      "name": "getContractBalance",
      "outputs": [
        {
          "internalType": "uint256",
          "name": "",
          "type": "uint256"
        }
      ],
      "stateMutability": "view",
      "type": "function"
    },
    {
      "inputs": [],
      "name": "ngoAdmin",
      "outputs": [
        {
          "internalType": "address",
          "name": "",
          "type": "address"
        }
      ],
      "stateMutability": "view",
      "type": "function"
    },
    {
      "inputs": [],
      "name": "totalAllocated",
      "outputs": [
        {
          "internalType": "uint256",
          "name": "",
          "type": "uint256"
        }
      ],
      "stateMutability": "view",
      "type": "function"
    },
    {
      "inputs": [],
      "name": "totalDonations",
      "outputs": [
        {
          "internalType": "uint256",
          "name": "",
          "type": "uint256"
        }
      ],
      "stateMutability": "view",
      "type": "function"
    },
    {
      "stateMutability": "payable",
      "type": "receive"
    }
  ],
  "bytecode": "0x608060405234801561001057600080fd5b50604051610b50380380610b5083398101604081905261002f91610098565b6001600160a01b0381166100735760405162461bcd60e51b8152602060048201526007602482015266041646d696e3d360cc1b604482015260640160405180910390fd5b600080546001600160a01b0319166001600160a01b03929092169190911790556100c8565b6000602082840312156100aa57600080fd5b81516001600160a01b03811681146100c157600080fd5b9392505050565b610a79806100d76000396000f3fe60806040526004361061008a5760003560e01c80638f283970116100595780638f28397014610120578063afc47ead14610140578063de2ed89314610155578063e12c405c1461016b578063ed88c68e146101a357600080fd5b80631ca00f621461009e57806345f7f249146100c95780636f9fb98a146100ed57806381f169ac1461010057600080fd5b36610099576100976101a7565b005b600080fd5b3480156100aa57600080fd5b506100b361023a565b6040516100c09190610710565b60405180910390f35b3480156100d557600080fd5b506100df60025481565b6040519081526020016100c0565b3480156100f957600080fd5b50476100df565b34801561010c57600080fd5b5061009761011b3660046107fc565b610358565b34801561012c57600080fd5b5061009761013b366004610887565b610635565b34801561014c57600080fd5b506003546100df565b34801561016157600080fd5b506100df60015481565b34801561017757600080fd5b5060005461018b906001600160a01b031681565b6040516001600160a01b0390911681526020016100c0565b6100975b600034116101e75760405162461bcd60e51b81526020600482015260086024820152674e6f2076616c756560c01b60448201526064015b60405180910390fd5b34600160008282546101f991906108ab565b90915550506040805134815242602082015233917f4b0304ab2f313234b1cea012339c8f8c3bf2c8bb357d81a579cfdb35d2e3d030910160405180910390a2565b60606003805480602002602001604051908101604052809291908181526020016000905b8282101561034f5783829060005260206000209060040201604051806080016040529081600082018054610291906108d2565b80601f01602080910402602001604051908101604052809291908181526020018280546102bd906108d2565b801561030a5780601f106102df5761010080835404028352916020019161030a565b820191906000526020600020905b8154815290600101906020018083116102ed57829003601f168201915b5050509183525050600182810154602080840191909152600284015460408401526003909301546001600160a01b03166060909201919091529183529201910161025e565b50505050905090565b6000546001600160a01b031633146103a35760405162461bcd60e51b815260206004820152600e60248201526d27b7363c902723a79030b236b4b760911b60448201526064016101de565b826103e25760405162461bcd60e51b815260206004820152600f60248201526e53747564656e74496420656d70747960881b60448201526064016101de565b6000821161041d5760405162461bcd60e51b81526020600482015260086024820152670416d6f756e743d360c41b60448201526064016101de565b814710156104645760405162461bcd60e51b8152602060048201526014602482015273496e73756666696369656e742062616c616e636560601b60448201526064016101de565b6040805160a06020601f87018190040282018101909252608081018581526003928291908890889081908501838280828437600092018290525093855250505060208083018790524260408401523360609093019290925283546001810185559381522081519192600402019081906104dd9082610973565b50602082015181600101556040820151816002015560608201518160030160006101000a8154816001600160a01b0302191690836001600160a01b031602179055505050816002600082825461053391906108ab565b90915550506001600160a01b038116156105de576000816001600160a01b03168360405160006040518083038185875af1925050503d8060008114610594576040519150601f19603f3d011682016040523d82523d6000602084013e610599565b606091505b50509050806105dc5760405162461bcd60e51b815260206004820152600f60248201526e151c985b9cd9995c8819985a5b1959608a1b60448201526064016101de565b505b60405133906105f09086908690610a33565b60408051918290038220858352426020840152917f3379894e7897c9b0a0e1fc3400aad418f2e593fe392095943ed39f2e38f7dc5a910160405180910390a350505050565b6000546001600160a01b031633146106805760405162461bcd60e51b815260206004820152600e60248201526d27b7363c902723a79030b236b4b760911b60448201526064016101de565b6001600160a01b0381166106c05760405162461bcd60e51b8152602060048201526007602482015266041646d696e3d360cc1b60448201526064016101de565b600080546001600160a01b038381166001600160a01b0319831681178455604051919092169283917f7e644d79422f17c01e4894b5f4f588d331ebfa28653d42ae832dc59e38c9798f9190a35050565b600060208083018184528085518083526040925060408601915060408160051b8701018488016000805b848110156107d557603f198a8503018652825160808151818752805180838901528592505b8083101561077d578183018c015188840160a00152918b019161075f565b60a092508583828a0101528b8401518c8901528a8401518b890152606091508184015193506107b6828901856001600160a01b03169052565b988b0198601f01601f191696909601019450509187019160010161073a565b50919998505050505050505050565b6001600160a01b03811681146107f957600080fd5b50565b6000806000806060858703121561081257600080fd5b843567ffffffffffffffff8082111561082a57600080fd5b818701915087601f83011261083e57600080fd5b81358181111561084d57600080fd5b88602082850101111561085f57600080fd5b602092830196509450508501359150604085013561087c816107e4565b939692955090935050565b60006020828403121561089957600080fd5b81356108a4816107e4565b9392505050565b808201808211156108cc57634e487b7160e01b600052601160045260246000fd5b92915050565b600181811c908216806108e657607f821691505b60208210810361090657634e487b7160e01b600052602260045260246000fd5b50919050565b634e487b7160e01b600052604160045260246000fd5b601f82111561096e576000816000526020600020601f850160051c8101602086101561094b5750805b601f850160051c820191505b8181101561096a57828155600101610957565b5050505b505050565b815167ffffffffffffffff81111561098d5761098d61090c565b6109a18161099b84546108d2565b84610922565b602080601f8311600181146109d657600084156109be5750858301515b600019600386901b1c1916600185901b17855561096a565b600085815260208120601f198616915b82811015610a05578886015182559484019460019091019084016109e6565b5085821015610a235787850151600019600388901b60f8161c191681555b5050505050600190811b01905550565b818382376000910190815291905056fea26469706673582212202634e5cafe51bb788e08fdf468488ce7d6dd374f7106da09ca09269e2fd83e3364736f6c63430008180033",
  "linkReferences": {},
  "deployedLinkReferences": {}
}