{
  "_format": "hh-sol-artifact-1",
  "contractName": "Crowdfunding",
  "sourceName": "contracts/Crowdfunding.sol",
  "abi": [
    {
      "anonymous": false,
      "inputs": [
        {
          "indexed": true,
          "internalType": "uint256",
          "name": "id",
          "type": "uint256"
        },
        {
          "indexed": true,
          "internalType": "address",
          "name": "creator",
          "type": "address"
        },
        {
          "indexed": false,
          "internalType": "string",
          "name": "title",
          "type": "string"
        },
        {
          "indexed": false,
          "internalType": "uint256",
          "name": "goal",
          "type": "uint256"
        },
        {
          "indexed": false,
          "internalType": "uint256",
          "name": "deadline",
          "type": "uint256"
        }
      ],
      "name": "CampaignCreated",
      "type": "event"
    },
    {
      "anonymous": false,
      "inputs": [
        {
          "indexed": true,
          "internalType": "uint256",
          "name": "id",
          "type": "uint256"
        },
        {
          "indexed": true,
          "internalType": "address",
          "name": "creator",
          "type": "address"
        },
        {
          "indexed": false,
          "internalType": "uint256",
          "name": "amount",
          "type": "uint256"
        }
      ],
      "name": "Claimed",
      "type": "event"
    },
    {
      "anonymous": false,
      "inputs": [
        {
          "indexed": true,
          "internalType": "uint256",
          "name": "id",
          "type": "uint256"
        },
        {
          "indexed": true,
          "internalType": "address",
          "name": "contributor",
          "type": "address"
        },
        {
          "indexed": false,
          "internalType": "uint256",
          "name": "amount",
          "type": "uint256"
        }
      ],
      "name": "Contributed",
      "type": "event"
    },
    {
      "anonymous": false,
      "inputs": [
        {
          "indexed": true,
          "internalType": "uint256",
          "name": "id",
          "type": "uint256"
        },
        {
          "indexed": true,
          "internalType": "address",
          "name": "contributor",
          "type": "address"
        },
        {
          "indexed": false,
          "internalType": "uint256",
          "name": "amount",
          "type": "uint256"
        }
      ],
      "name": "Refunded",
      "type": "event"
    },
    {
      "inputs": [
        {
          "internalType": "uint256",
          "name": "",
          "type": "uint256"
        }
      ],
      "name": "campaigns",
      "outputs": [
        {
          "internalType": "address",
          "name": "creator",
          "type": "address"
        },
        {
          "internalType": "string",
          "name": "title",
          "type": "string"
        },
        {
          "internalType": "string",
          "name": "description",
          "type": "string"
        },
        {
          "internalType": "uint256",
          "name": "goal",
          "type": "uint256"
        },
        {
          "internalType": "uint256",
          "name": "deadline",
          "type": "uint256"
        },
        {
          "internalType": "uint256",
          "name": "fundsRaised",
          "type": "uint256"
        },
        {
          "internalType": "bool",
          "name": "claimed",
          "type": "bool"
        }
      ],
      "stateMutability": "view",
      "type": "function"
    },
    {
      "inputs": [
        {
          "internalType": "uint256",
          "name": "id",
          "type": "uint256"
        }
      ],
      "name": "claim",
      "outputs": [],
      "stateMutability": "nonpayable",
      "type": "function"
    },
    {
      "inputs": [
        {
          "internalType": "uint256",
          "name": "id",
          "type": "uint256"
        }
      ],
      "name": "contribute",
      "outputs": [],
      "stateMutability": "payable",
      "type": "function"
    },
    {
      "inputs": [
        {
          "internalType": "uint256",
          "name": "",
          "type": "uint256"
        },
        {
          "internalType": "address",
          "name": "",
          "type": "address"
        }
      ],
      "name": "contributions",
      "outputs": [
        {
          "internalType": "uint256",
          "name": "",
          "type": "uint256"
        }
      ],
      "stateMutability": "view",
      "type": "function"
    },
    {
      "inputs": [
        {
          "internalType": "string",
          "name": "title",
          "type": "string"
        },
        {
          "internalType": "string",
          "name": "description",
          "type": "string"
        },
        {
          "internalType": "uint256",
          "name": "goal",
          "type": "uint256"
        },
        {
          "internalType": "uint256",
          "name": "duration",
          "type": "uint256"
        }
      ],
      "name": "createCampaign",
      "outputs": [
        {
          "internalType": "uint256",
          "name": "id",
          "type": "uint256"
        }
      ],
      "stateMutability": "nonpayable",
      "type": "function"
    },
    {
      "inputs": [
        {
          "internalType": "uint256",
          "name": "id",
          "type": "uint256"
        }
      ],
      "name": "getCampaign",
      "outputs": [
        {
          "components": [
            {
              "internalType": "address",
              "name": "creator",
              "type": "address"
            },
            {
              "internalType": "string",
              "name": "title",
              "type": "string"
            },
            {
              "internalType": "string",
              "name": "description",
              "type": "string"
            },
            {
              "internalType": "uint256",
              "name": "goal",
              "type": "uint256"
            },
            {
              "internalType": "uint256",
              "name": "deadline",
              "type": "uint256"
            },
            {
              "internalType": "uint256",
              "name": "fundsRaised",
              "type": "uint256"
            },
            {
              "internalType": "bool",
              "name": "claimed",
              "type": "bool"
            }
          ],
          "internalType": "struct Crowdfunding.Campaign",
          "name": "",
          "type": "tuple"
        }
      ],
      "stateMutability": "view",
      "type": "function"
    },
    {
      "inputs": [],
      "name": "nextCampaignId",
      "outputs": [
        {
          "internalType": "uint256",
          "name": "",
          "type": "uint256"
        }
      ],
      "stateMutability": "view",
      "type": "function"
    },
    {
      "inputs": [
        {
          "internalType": "uint256",
          "name": "id",
          "type": "uint256"
        }
      ],
      "name": "refund",
      "outputs": [],
      "stateMutability": "nonpayable",
      "type": "function"
    }
  ],
  "bytecode": "0x608060405234801561001057600080fd5b50610ff2806100206000396000f3fe60806040526004361061007b5760003560e01c80635598f8cc1161004e5780635598f8cc146101445780637903a75614610171578063a318f26914610187578063c1cbbca7146101a757600080fd5b8063141961bc14610080578063278ecde1146100bc578063379607f5146100de5780633d891f59146100fe575b600080fd5b34801561008c57600080fd5b506100a061009b366004610b8e565b6101ba565b6040516100b39796959493929190610bed565b60405180910390f35b3480156100c857600080fd5b506100dc6100d7366004610b8e565b610314565b005b3480156100ea57600080fd5b506100dc6100f9366004610b8e565b610524565b34801561010a57600080fd5b50610136610119366004610c4c565b600260209081526000928352604080842090915290825290205481565b6040519081526020016100b3565b34801561015057600080fd5b5061016461015f366004610b8e565b610746565b6040516100b39190610c88565b34801561017d57600080fd5b5061013660005481565b34801561019357600080fd5b506101366101a2366004610d54565b610913565b6100dc6101b5366004610b8e565b610a43565b6001602081905260009182526040909120805491810180546001600160a01b03909316926101e790610dd2565b80601f016020809104026020016040519081016040528092919081815260200182805461021390610dd2565b80156102605780601f1061023557610100808354040283529160200191610260565b820191906000526020600020905b81548152906001019060200180831161024357829003601f168201915b50505050509080600201805461027590610dd2565b80601f01602080910402602001604051908101604052809291908181526020018280546102a190610dd2565b80156102ee5780601f106102c3576101008083540402835291602001916102ee565b820191906000526020600020905b8154815290600101906020018083116102d157829003601f168201915b505050506003830154600484015460058501546006909501549394919390925060ff1687565b600081815260016020526040902080546001600160a01b031661036c5760405162461bcd60e51b815260206004820152600b60248201526a27379031b0b6b830b4b3b760a91b60448201526064015b60405180910390fd5b80600401544210156103ac5760405162461bcd60e51b8152602060048201526009602482015268139bdd08195b99195960ba1b6044820152606401610363565b80600301548160050154106103ee5760405162461bcd60e51b815260206004820152600860248201526711dbd85b081b595d60c21b6044820152606401610363565b6000828152600260209081526040808320338452909152902054806104495760405162461bcd60e51b8152602060048201526011602482015270139bdd1a1a5b99c81d1bc81c99599d5b99607a1b6044820152606401610363565b60008381526002602090815260408083203380855292528083208390555183908381818185875af1925050503d80600081146104a1576040519150601f19603f3d011682016040523d82523d6000602084013e6104a6565b606091505b50509050806104e75760405162461bcd60e51b815260206004820152600d60248201526c1499599d5b990819985a5b1959609a1b6044820152606401610363565b604051828152339085907f7ca5472b7ea78c2c0141c5a12ee6d170cf4ce8ed06be3d22c8252ddfc7a6a2c49060200160405180910390a350505050565b60008181526001602052604090205481906001600160a01b0316331461057a5760405162461bcd60e51b815260206004820152600b60248201526a2737ba1031b932b0ba37b960a91b6044820152606401610363565b600082815260016020526040902060048101544210156105c85760405162461bcd60e51b8152602060048201526009602482015268139bdd08195b99195960ba1b6044820152606401610363565b80600301548160050154101561060f5760405162461bcd60e51b815260206004820152600c60248201526b11dbd85b081b9bdd081b595d60a21b6044820152606401610363565b600681015460ff161561064e5760405162461bcd60e51b815260206004820152600760248201526610db185a5b595960ca1b6044820152606401610363565b60068101805460ff1916600117905560058101805460009182905582546040519192916001600160a01b039091169083908381818185875af1925050503d80600081146106b7576040519150601f19603f3d011682016040523d82523d6000602084013e6106bc565b606091505b50509050806106fc5760405162461bcd60e51b815260206004820152600c60248201526b10db185a5b4819985a5b195960a21b6044820152606401610363565b82546040518381526001600160a01b039091169086907f4ec90e965519d92681267467f775ada5bd214aa92c0dc93d90a5e880ce9ed0269060200160405180910390a35050505050565b6107916040518060e0016040528060006001600160a01b0316815260200160608152602001606081526020016000815260200160008152602001600081526020016000151581525090565b600082815260016020818152604092839020835160e0810190945280546001600160a01b031684529182018054918401916107cb90610dd2565b80601f01602080910402602001604051908101604052809291908181526020018280546107f790610dd2565b80156108445780601f1061081957610100808354040283529160200191610844565b820191906000526020600020905b81548152906001019060200180831161082757829003601f168201915b5050505050815260200160028201805461085d90610dd2565b80601f016020809104026020016040519081016040528092919081815260200182805461088990610dd2565b80156108d65780601f106108ab576101008083540402835291602001916108d6565b820191906000526020600020905b8154815290600101906020018083116108b957829003601f168201915b505050918352505060038201546020820152600482015460408201526005820154606082015260069091015460ff16151560809091015292915050565b600080831161094d5760405162461bcd60e51b81526020600482015260066024820152650476f616c3d360d41b6044820152606401610363565b6000821161098a5760405162461bcd60e51b815260206004820152600a60248201526904475726174696f6e3d360b41b6044820152606401610363565b60008054908061099983610e22565b90915550600081815260016020819052604090912080546001600160a01b0319163317815591925081016109ce888a83610ea2565b50600281016109de868883610ea2565b50600381018490556109f08342610f63565b60048201819055604051339184917fdc26653af5b99b2da33e2ad69ee6600d9aeccc82b034501db4338309615ca23891610a30918d918d918b9190610f7c565b60405180910390a3509695505050505050565b600081815260016020526040902080546001600160a01b0316610a965760405162461bcd60e51b815260206004820152600b60248201526a27379031b0b6b830b4b3b760a91b6044820152606401610363565b80600401544210610ad15760405162461bcd60e51b8152602060048201526005602482015264115b99195960da1b6044820152606401610363565b60003411610b0c5760405162461bcd60e51b81526020600482015260086024820152674e6f2076616c756560c01b6044820152606401610363565b34816005016000828254610b209190610f63565b9091555050600082815260026020908152604080832033845290915281208054349290610b4e908490610f63565b9091555050604051348152339083907fb2ed2e021651f85a4754a44651fc09ac5141bc0329ce4dfe8dd712a5d04a8b399060200160405180910390a35050565b600060208284031215610ba057600080fd5b5035919050565b6000815180845260005b81811015610bcd57602081850181015186830182015201610bb1565b506000602082860101526020601f19601f83011685010191505092915050565b6001600160a01b038816815260e060208201819052600090610c1190830189610ba7565b8281036040840152610c238189610ba7565b9150508560608301528460808301528360a083015282151560c083015298975050505050505050565b60008060408385031215610c5f57600080fd5b8235915060208301356001600160a01b0381168114610c7d57600080fd5b809150509250929050565b602080825282516001600160a01b03168282015282015160e06040830152600090610cb7610100840182610ba7565b90506040840151601f19848303016060850152610cd48282610ba7565b91505060608401516080840152608084015160a084015260a084015160c084015260c0840151151560e08401528091505092915050565b60008083601f840112610d1d57600080fd5b50813567ffffffffffffffff811115610d3557600080fd5b602083019150836020828501011115610d4d57600080fd5b9250929050565b60008060008060008060808789031215610d6d57600080fd5b863567ffffffffffffffff80821115610d8557600080fd5b610d918a838b01610d0b565b90985096506020890135915080821115610daa57600080fd5b50610db789828a01610d0b565b979a9699509760408101359660609091013595509350505050565b600181811c90821680610de657607f821691505b602082108103610e0657634e487b7160e01b600052602260045260246000fd5b50919050565b634e487b7160e01b600052601160045260246000fd5b600060018201610e3457610e34610e0c565b5060010190565b634e487b7160e01b600052604160045260246000fd5b601f821115610e9d576000816000526020600020601f850160051c81016020861015610e7a5750805b601f850160051c820191505b81811015610e9957828155600101610e86565b5050505b505050565b67ffffffffffffffff831115610eba57610eba610e3b565b610ece83610ec88354610dd2565b83610e51565b6000601f841160018114610f025760008515610eea5750838201355b600019600387901b1c1916600186901b178355610f5c565b600083815260209020601f19861690835b82811015610f335786850135825560209485019460019092019101610f13565b5086821015610f505760001960f88860031b161c19848701351681555b505060018560011b0183555b5050505050565b80820180821115610f7657610f76610e0c565b92915050565b606081528360608201528385608083013760006080858301015260006080601f19601f87011683010190508360208301528260408301529594505050505056fea26469706673582212207cb1dde17aa0ba35dcf67f712c9f4d24f517f2796eb1d62ea080d9200cad9e1864736f6c63430008180033",
  "linkReferences": {},
  "deployedLinkReferences": {}
}